{"abi":[{"type":"constructor","inputs":[{"name":"_factory","type":"address","internalType":"address"}],"stateMutability":"nonpayable"},{"type":"function","name":"addLiquidity","inputs":[{"name":"tokenA","type":"address","internalType":"address"},{"name":"tokenB","type":"address","internalType":"address"},{"name":"amountA","type":"uint256","internalType":"uint256"},{"name":"amountB","type":"uint256","internalType":"uint256"}],"outputs":[{"name":"liquidity","type":"uint256","internalType":"uint256"}],"stateMutability":"nonpayable"},{"type":"function","name":"factory","inputs":[],"outputs":[{"name":"","type":"address","internalType":"contract BuzzSwapFactory"}],"stateMutability":"view"},{"type":"function","name":"getPairAddress","inputs":[{"name":"tokenA","type":"address","internalType":"address"},{"name":"tokenB","type":"address","internalType":"address"}],"outputs":[{"name":"","type":"address","internalType":"address"}],"stateMutability":"view"},{"type":"function","name":"removeLiquidity","inputs":[{"name":"tokenA","type":"address","internalType":"address"},{"name":"tokenB","type":"address","internalType":"address"}],"outputs":[{"name":"amount0","type":"uint256","internalType":"uint256"},{"name":"amount1","type":"uint256","internalType":"uint256"}],"stateMutability":"nonpayable"},{"type":"function","name":"swapExactTokensForTokens","inputs":[{"name":"amountIn","type":"uint256","internalType":"uint256"},{"name":"tokenIn","type":"address","internalType":"address"},{"name":"tokenOut","type":"address","internalType":"address"}],"outputs":[{"name":"amountOut","type":"uint256","internalType":"uint256"}],"stateMutability":"nonpayable"}],"bytecode":{"object":"0x608060405234801561001057600080fd5b506040516109c13803806109c183398101604081905261002f91610054565b600080546001600160a01b0319166001600160a01b0392909216919091179055610084565b60006020828403121561006657600080fd5b81516001600160a01b038116811461007d57600080fd5b9392505050565b61092e806100936000396000f3fe608060405234801561001057600080fd5b50600436106100575760003560e01c806397531a901461005c5780639cf38f7c14610082578063b4f69a2f146100aa578063c45a0155146100d5578063cf6c62ea146100e8575b600080fd5b61006f61006a366004610797565b6100fb565b6040519081526020015b60405180910390f35b6100956100903660046107d9565b6102bf565b60408051928352602083019190915201610079565b6100bd6100b83660046107d9565b6104d7565b6040516001600160a01b039091168152602001610079565b6000546100bd906001600160a01b031681565b61006f6100f6366004610812565b610555565b6000805460405163e6a4390560e01b81526001600160a01b03858116600483015284811660248301528392169063e6a4390590604401602060405180830381865afa15801561014e573d6000803e3d6000fd5b505050506040513d601f19601f820116820180604052508101906101729190610858565b90506001600160a01b0381166101cf5760405162461bcd60e51b815260206004820152601e60248201527f42757a7a53776170526f757465723a20504149525f4e4f545f4558495354000060448201526064015b60405180910390fd5b6040516323b872dd60e01b81526001600160a01b038516906323b872dd906101ff90339085908a90600401610875565b6020604051808303816000875af115801561021e573d6000803e3d6000fd5b505050506040513d601f19601f820116820180604052508101906102429190610899565b50604051631a730de160e31b8152600481018690526001600160a01b03858116602483015282169063d3986f08906044016020604051808303816000875af1158015610292573d6000803e3d6000fd5b505050506040513d601f19601f820116820180604052508101906102b691906108bb565b95945050505050565b6000805460405163e6a4390560e01b81526001600160a01b03858116600483015284811660248301528392839291169063e6a4390590604401602060405180830381865afa158015610315573d6000803e3d6000fd5b505050506040513d601f19601f820116820180604052508101906103399190610858565b90506001600160a01b0381166103915760405162461bcd60e51b815260206004820152601e60248201527f42757a7a53776170526f757465723a20504149525f4e4f545f4558495354000060448201526064016101c6565b6040516370a0823160e01b815233600482018190526001600160a01b038316916323b872dd9190849084906370a0823190602401602060405180830381865afa1580156103e2573d6000803e3d6000fd5b505050506040513d601f19601f8201168201806040525081019061040691906108bb565b6040518463ffffffff1660e01b815260040161042493929190610875565b6020604051808303816000875af1158015610443573d6000803e3d6000fd5b505050506040513d601f19601f820116820180604052508101906104679190610899565b50806001600160a01b03166367b9a2866040518163ffffffff1660e01b815260040160408051808303816000875af11580156104a7573d6000803e3d6000fd5b505050506040513d601f19601f820116820180604052508101906104cb91906108d4565b90969095509350505050565b6000805460405163e6a4390560e01b81526001600160a01b03858116600483015284811660248301529091169063e6a4390590604401602060405180830381865afa15801561052a573d6000803e3d6000fd5b505050506040513d601f19601f8201168201806040525081019061054e9190610858565b9392505050565b6000805460405163e6a4390560e01b81526001600160a01b03878116600483015286811660248301528392169063e6a4390590604401602060405180830381865afa1580156105a8573d6000803e3d6000fd5b505050506040513d601f19601f820116820180604052508101906105cc9190610858565b90506001600160a01b03811661061b5760405162461bcd60e51b8152602060048201526014602482015273696e76616c696420706f6f6c206164647265737360601b60448201526064016101c6565b6040516323b872dd60e01b81526001600160a01b038716906323b872dd9061064b90339085908990600401610875565b6020604051808303816000875af115801561066a573d6000803e3d6000fd5b505050506040513d601f19601f8201168201806040525081019061068e9190610899565b506040516323b872dd60e01b81526001600160a01b038616906323b872dd906106bf90339085908890600401610875565b6020604051808303816000875af11580156106de573d6000803e3d6000fd5b505050506040513d601f19601f820116820180604052508101906107029190610899565b50604051634e6a20ed60e11b815260048101859052602481018490526001600160a01b03821690639cd441da906044016020604051808303816000875af1158015610751573d6000803e3d6000fd5b505050506040513d601f19601f8201168201806040525081019061077591906108bb565b9695505050505050565b6001600160a01b038116811461079457600080fd5b50565b6000806000606084860312156107ac57600080fd5b8335925060208401356107be8161077f565b915060408401356107ce8161077f565b809150509250925092565b600080604083850312156107ec57600080fd5b82356107f78161077f565b915060208301356108078161077f565b809150509250929050565b6000806000806080858703121561082857600080fd5b84356108338161077f565b935060208501356108438161077f565b93969395505050506040820135916060013590565b60006020828403121561086a57600080fd5b815161054e8161077f565b6001600160a01b039384168152919092166020820152604081019190915260600190565b6000602082840312156108ab57600080fd5b8151801515811461054e57600080fd5b6000602082840312156108cd57600080fd5b5051919050565b600080604083850312156108e757600080fd5b50508051602090910151909290915056fea26469706673582212208ac8393756dd23b24569c56895352cc4712e0d0a6ada62c385d0de44a4704ba364736f6c63430008180033","linkReferences":{}},"methodIdentifiers":{"addLiquidity(address,address,uint256,uint256)":"cf6c62ea","factory()":"c45a0155","getPairAddress(address,address)":"b4f69a2f","removeLiquidity(address,address)":"9cf38f7c","swapExactTokensForTokens(uint256,address,address)":"97531a90"},"id":7}