{"abi":[{"type":"constructor","inputs":[],"stateMutability":"nonpayable"},{"type":"function","name":"addLiquidity","inputs":[{"name":"amount0","type":"uint256","internalType":"uint256"},{"name":"amount1","type":"uint256","internalType":"uint256"}],"outputs":[{"name":"liquidity","type":"uint256","internalType":"uint256"}],"stateMutability":"nonpayable"},{"type":"function","name":"allowance","inputs":[{"name":"owner","type":"address","internalType":"address"},{"name":"spender","type":"address","internalType":"address"}],"outputs":[{"name":"","type":"uint256","internalType":"uint256"}],"stateMutability":"view"},{"type":"function","name":"approve","inputs":[{"name":"spender","type":"address","internalType":"address"},{"name":"value","type":"uint256","internalType":"uint256"}],"outputs":[{"name":"","type":"bool","internalType":"bool"}],"stateMutability":"nonpayable"},{"type":"function","name":"balanceOf","inputs":[{"name":"account","type":"address","internalType":"address"}],"outputs":[{"name":"","type":"uint256","internalType":"uint256"}],"stateMutability":"view"},{"type":"function","name":"bondingCurve","inputs":[],"outputs":[{"name":"","type":"address","internalType":"contract IBondingCurve"}],"stateMutability":"view"},{"type":"function","name":"decimals","inputs":[],"outputs":[{"name":"","type":"uint8","internalType":"uint8"}],"stateMutability":"view"},{"type":"function","name":"getReserves","inputs":[],"outputs":[{"name":"","type":"uint112","internalType":"uint112"},{"name":"","type":"uint112","internalType":"uint112"}],"stateMutability":"view"},{"type":"function","name":"initialize","inputs":[{"name":"_token0","type":"address","internalType":"address"},{"name":"_token1","type":"address","internalType":"address"},{"name":"_bondingCurve","type":"address","internalType":"address"}],"outputs":[],"stateMutability":"nonpayable"},{"type":"function","name":"name","inputs":[],"outputs":[{"name":"","type":"string","internalType":"string"}],"stateMutability":"view"},{"type":"function","name":"removeLiquidity","inputs":[],"outputs":[{"name":"amount0","type":"uint256","internalType":"uint256"},{"name":"amount1","type":"uint256","internalType":"uint256"}],"stateMutability":"nonpayable"},{"type":"function","name":"swap","inputs":[{"name":"amountIn","type":"uint256","internalType":"uint256"},{"name":"tokenIn","type":"address","internalType":"address"}],"outputs":[{"name":"amountOut","type":"uint256","internalType":"uint256"}],"stateMutability":"nonpayable"},{"type":"function","name":"symbol","inputs":[],"outputs":[{"name":"","type":"string","internalType":"string"}],"stateMutability":"view"},{"type":"function","name":"token0","inputs":[],"outputs":[{"name":"","type":"address","internalType":"address"}],"stateMutability":"view"},{"type":"function","name":"token1","inputs":[],"outputs":[{"name":"","type":"address","internalType":"address"}],"stateMutability":"view"},{"type":"function","name":"totalSupply","inputs":[],"outputs":[{"name":"","type":"uint256","internalType":"uint256"}],"stateMutability":"view"},{"type":"function","name":"transfer","inputs":[{"name":"to","type":"address","internalType":"address"},{"name":"value","type":"uint256","internalType":"uint256"}],"outputs":[{"name":"","type":"bool","internalType":"bool"}],"stateMutability":"nonpayable"},{"type":"function","name":"transferFrom","inputs":[{"name":"from","type":"address","internalType":"address"},{"name":"to","type":"address","internalType":"address"},{"name":"value","type":"uint256","internalType":"uint256"}],"outputs":[{"name":"","type":"bool","internalType":"bool"}],"stateMutability":"nonpayable"},{"type":"event","name":"Approval","inputs":[{"name":"owner","type":"address","indexed":true,"internalType":"address"},{"name":"spender","type":"address","indexed":true,"internalType":"address"},{"name":"value","type":"uint256","indexed":false,"internalType":"uint256"}],"anonymous":false},{"type":"event","name":"Transfer","inputs":[{"name":"from","type":"address","indexed":true,"internalType":"address"},{"name":"to","type":"address","indexed":true,"internalType":"address"},{"name":"value","type":"uint256","indexed":false,"internalType":"uint256"}],"anonymous":false},{"type":"error","name":"ERC20InsufficientAllowance","inputs":[{"name":"spender","type":"address","internalType":"address"},{"name":"allowance","type":"uint256","internalType":"uint256"},{"name":"needed","type":"uint256","internalType":"uint256"}]},{"type":"error","name":"ERC20InsufficientBalance","inputs":[{"name":"sender","type":"address","internalType":"address"},{"name":"balance","type":"uint256","internalType":"uint256"},{"name":"needed","type":"uint256","internalType":"uint256"}]},{"type":"error","name":"ERC20InvalidApprover","inputs":[{"name":"approver","type":"address","internalType":"address"}]},{"type":"error","name":"ERC20InvalidReceiver","inputs":[{"name":"receiver","type":"address","internalType":"address"}]},{"type":"error","name":"ERC20InvalidSender","inputs":[{"name":"sender","type":"address","internalType":"address"}]},{"type":"error","name":"ERC20InvalidSpender","inputs":[{"name":"spender","type":"address","internalType":"address"}]}],"bytecode":{"object":"0x60806040523480156200001157600080fd5b506040518060400160405280600d81526020016c213abd3d102628102a37b5b2b760991b815250604051806040016040528060038152602001620424c560ec1b815250816003908162000065919062000124565b50600462000074828262000124565b505050620001f0565b634e487b7160e01b600052604160045260246000fd5b600181811c90821680620000a857607f821691505b602082108103620000c957634e487b7160e01b600052602260045260246000fd5b50919050565b601f8211156200011f576000816000526020600020601f850160051c81016020861015620000fa5750805b601f850160051c820191505b818110156200011b5782815560010162000106565b5050505b505050565b81516001600160401b038111156200014057620001406200007d565b620001588162000151845462000093565b84620000cf565b602080601f831160018114620001905760008415620001775750858301515b600019600386901b1c1916600185901b1785556200011b565b600085815260208120601f198616915b82811015620001c157888601518255948401946001909101908401620001a0565b5085821015620001e05787850151600019600388901b60f8161c191681555b5050505050600190811b01905550565b61130c80620002006000396000f3fe608060405234801561001057600080fd5b506004361061010b5760003560e01c806370a08231116100a2578063c0c53b8b11610071578063c0c53b8b1461024e578063d21220a714610263578063d3986f0814610276578063dd62ed3e14610289578063eff1d50e146102c257600080fd5b806370a08231146101f757806395d89b41146102205780639cd441da14610228578063a9059cbb1461023b57600080fd5b806318160ddd116100de57806318160ddd146101a657806323b872dd146101b8578063313ce567146101cb57806367b9a286146101da57600080fd5b806306fdde03146101105780630902f1ac1461012e578063095ea7b3146101585780630dfe16811461017b575b600080fd5b6101186102d5565b6040516101259190611050565b60405180910390f35b600854604080516001600160701b038084168252600160701b909304909216602083015201610125565b61016b6101663660046110b6565b610367565b6040519015158152602001610125565b60055461018e906001600160a01b031681565b6040516001600160a01b039091168152602001610125565b6002545b604051908152602001610125565b61016b6101c63660046110e0565b610381565b60405160128152602001610125565b6101e26103a5565b60408051928352602083019190915201610125565b6101aa61020536600461111c565b6001600160a01b031660009081526020819052604090205490565b6101186105c2565b6101aa610236366004611137565b6105d1565b61016b6102493660046110b6565b610853565b61026161025c366004611159565b610861565b005b60065461018e906001600160a01b031681565b6101aa61028436600461119c565b610904565b6101aa6102973660046111c8565b6001600160a01b03918216600090815260016020908152604080832093909416825291909152205490565b60075461018e906001600160a01b031681565b6060600380546102e4906111f2565b80601f0160208091040260200160405190810160405280929190818152602001828054610310906111f2565b801561035d5780601f106103325761010080835404028352916020019161035d565b820191906000526020600020905b81548152906001019060200180831161034057829003601f168201915b5050505050905090565b600033610375818585610c69565b60019150505b92915050565b60003361038f858285610c7b565b61039a858585610cfa565b506001949350505050565b336000908152602081905260408120548190600081116103fe5760405162461bcd60e51b815260206004820152600f60248201526e3737ba3434b733903a3790313ab93760891b60448201526064015b60405180910390fd5b600061040960025490565b6008549091508190610424906001600160701b03168461123c565b61042e9190611253565b600854909450819061045090600160701b90046001600160701b03168461123c565b61045a9190611253565b92506104663383610d59565b6008546104d0906104819086906001600160701b0316611275565b60085461049f908690600160701b90046001600160701b0316611275565b600880546001600160701b03928316600160701b026001600160e01b03199091169290931691909117919091179055565b60055460405163a9059cbb60e01b8152336004820152602481018690526001600160a01b039091169063a9059cbb906044016020604051808303816000875af1158015610521573d6000803e3d6000fd5b505050506040513d601f19601f820116820180604052508101906105459190611288565b5060065460405163a9059cbb60e01b8152336004820152602481018590526001600160a01b039091169063a9059cbb906044016020604051808303816000875af1158015610597573d6000803e3d6000fd5b505050506040513d601f19601f820116820180604052508101906105bb9190611288565b5050509091565b6060600480546102e4906111f2565b6005546040516323b872dd60e01b8152336004820152306024820152604481018490526000916001600160a01b0316906323b872dd906064016020604051808303816000875af1158015610629573d6000803e3d6000fd5b505050506040513d601f19601f8201168201806040525081019061064d9190611288565b506006546040516323b872dd60e01b8152336004820152306024820152604481018490526001600160a01b03909116906323b872dd906064016020604051808303816000875af11580156106a5573d6000803e3d6000fd5b505050506040513d601f19601f820116820180604052508101906106c99190611288565b5060006106d560025490565b9050806000036106f8576106f16106ec848661123c565b610d93565b9150610717565b610714610705828661123c565b61070f838661123c565b610e03565b91505b600082116107675760405162461bcd60e51b815260206004820152601d60248201527f496e73756666696369656e74206c6971756964697479206d696e74656400000060448201526064016103f5565b6107713383610e1b565b6005546040516370a0823160e01b815230600482015261084c916001600160a01b0316906370a08231906024015b602060405180830381865afa1580156107bc573d6000803e3d6000fd5b505050506040513d601f19601f820116820180604052508101906107e091906112aa565b6006546040516370a0823160e01b81523060048201526001600160a01b03909116906370a0823190602401602060405180830381865afa158015610828573d6000803e3d6000fd5b505050506040513d601f19601f8201168201806040525081019061049f91906112aa565b5092915050565b600033610375818585610cfa565b6005546001600160a01b031615801561088357506006546001600160a01b0316155b6108c55760405162461bcd60e51b8152602060048201526013602482015272105b1c9958591e481a5b9a5d1a585b1a5e9959606a1b60448201526064016103f5565b600580546001600160a01b039485166001600160a01b031991821617909155600680549385169382169390931790925560078054919093169116179055565b6005546000906001600160a01b038381169116148061093057506006546001600160a01b038381169116145b61096c5760405162461bcd60e51b815260206004820152600d60248201526c24b73b30b634b2103a37b5b2b760991b60448201526064016103f5565b6005546001600160a01b038381169116146000808080846109b9576006546005546008546001600160a01b039283169291909116906001600160701b03600160701b8204811691166109e7565b6005546006546008546001600160a01b0392831692909116906001600160701b0380821691600160701b9004165b6040516323b872dd60e01b8152336004820152306024820152604481018d9052939750919550935091506001600160a01b038516906323b872dd906064016020604051808303816000875af1158015610a44573d6000803e3d6000fd5b505050506040513d601f19601f82011682018060405250810190610a689190611288565b506040516370a0823160e01b81523060048201526000906001600160a01b038616906370a0823190602401602060405180830381865afa158015610ab0573d6000803e3d6000fd5b505050506040513d601f19601f82011682018060405250810190610ad491906112aa565b90506000610aeb6001600160701b03851683611275565b600754604051630153543560e21b8152600481018390526001600160701b038088166024830152861660448201529192506001600160a01b03169063054d50d490606401602060405180830381865afa158015610b4c573d6000803e3d6000fd5b505050506040513d601f19601f82011682018060405250810190610b7091906112aa565b975060008811610bb85760405162461bcd60e51b8152602060048201526013602482015272125b9cdd59999a58da595b9d081bdd5d1c1d5d606a1b60448201526064016103f5565b60405163a9059cbb60e01b8152336004820152602481018990526001600160a01b0386169063a9059cbb906044016020604051808303816000875af1158015610c05573d6000803e3d6000fd5b505050506040513d601f19601f82011682018060405250810190610c299190611288565b506005546040516370a0823160e01b8152306004820152610c5c916001600160a01b0316906370a082319060240161079f565b5050505050505092915050565b610c768383836001610e51565b505050565b6001600160a01b03838116600090815260016020908152604080832093861683529290522054600019811015610cf45781811015610ce557604051637dc7a0d960e11b81526001600160a01b038416600482015260248101829052604481018390526064016103f5565b610cf484848484036000610e51565b50505050565b6001600160a01b038316610d2457604051634b637e8f60e11b8152600060048201526024016103f5565b6001600160a01b038216610d4e5760405163ec442f0560e01b8152600060048201526024016103f5565b610c76838383610f26565b6001600160a01b038216610d8357604051634b637e8f60e11b8152600060048201526024016103f5565b610d8f82600083610f26565b5050565b60006003821115610df45750806000610dad600283611253565b610db89060016112c3565b90505b81811015610dee57905080600281610dd38186611253565b610ddd91906112c3565b610de79190611253565b9050610dbb565b50919050565b8115610dfe575060015b919050565b6000818310610e125781610e14565b825b9392505050565b6001600160a01b038216610e455760405163ec442f0560e01b8152600060048201526024016103f5565b610d8f60008383610f26565b6001600160a01b038416610e7b5760405163e602df0560e01b8152600060048201526024016103f5565b6001600160a01b038316610ea557604051634a1406b160e11b8152600060048201526024016103f5565b6001600160a01b0380851660009081526001602090815260408083209387168352929052208290558015610cf457826001600160a01b0316846001600160a01b03167f8c5be1e5ebec7d5bd14f71427d1e84f3dd0314c0f7b2291e5b200ac8c7c3b92584604051610f1891815260200190565b60405180910390a350505050565b6001600160a01b038316610f51578060026000828254610f4691906112c3565b90915550610fc39050565b6001600160a01b03831660009081526020819052604090205481811015610fa45760405163391434e360e21b81526001600160a01b038516600482015260248101829052604481018390526064016103f5565b6001600160a01b03841660009081526020819052604090209082900390555b6001600160a01b038216610fdf57600280548290039055610ffe565b6001600160a01b03821660009081526020819052604090208054820190555b816001600160a01b0316836001600160a01b03167fddf252ad1be2c89b69c2b068fc378daa952ba7f163c4a11628f55a4df523b3ef8360405161104391815260200190565b60405180910390a3505050565b60006020808352835180602085015260005b8181101561107e57858101830151858201604001528201611062565b506000604082860101526040601f19601f8301168501019250505092915050565b80356001600160a01b0381168114610dfe57600080fd5b600080604083850312156110c957600080fd5b6110d28361109f565b946020939093013593505050565b6000806000606084860312156110f557600080fd5b6110fe8461109f565b925061110c6020850161109f565b9150604084013590509250925092565b60006020828403121561112e57600080fd5b610e148261109f565b6000806040838503121561114a57600080fd5b50508035926020909101359150565b60008060006060848603121561116e57600080fd5b6111778461109f565b92506111856020850161109f565b91506111936040850161109f565b90509250925092565b600080604083850312156111af57600080fd5b823591506111bf6020840161109f565b90509250929050565b600080604083850312156111db57600080fd5b6111e48361109f565b91506111bf6020840161109f565b600181811c9082168061120657607f821691505b602082108103610dee57634e487b7160e01b600052602260045260246000fd5b634e487b7160e01b600052601160045260246000fd5b808202811582820484141761037b5761037b611226565b60008261127057634e487b7160e01b600052601260045260246000fd5b500490565b8181038181111561037b5761037b611226565b60006020828403121561129a57600080fd5b81518015158114610e1457600080fd5b6000602082840312156112bc57600080fd5b5051919050565b8082018082111561037b5761037b61122656fea26469706673582212207608669d341ada6e4576166d651bc427377ef1ab73b79fcfef13d21948a84a2964736f6c63430008180033","linkReferences":{}},"methodIdentifiers":{"addLiquidity(uint256,uint256)":"9cd441da","allowance(address,address)":"dd62ed3e","approve(address,uint256)":"095ea7b3","balanceOf(address)":"70a08231","bondingCurve()":"eff1d50e","decimals()":"313ce567","getReserves()":"0902f1ac","initialize(address,address,address)":"c0c53b8b","name()":"06fdde03","removeLiquidity()":"67b9a286","swap(uint256,address)":"d3986f08","symbol()":"95d89b41","token0()":"0dfe1681","token1()":"d21220a7","totalSupply()":"18160ddd","transfer(address,uint256)":"a9059cbb","transferFrom(address,address,uint256)":"23b872dd"},"id":24}