{"abi":[{"type":"constructor","inputs":[],"stateMutability":"nonpayable"},{"type":"function","name":"getAmountOut","inputs":[{"name":"amountIn","type":"uint256","internalType":"uint256"},{"name":"reserveIn","type":"uint256","internalType":"uint256"},{"name":"reserveOut","type":"uint256","internalType":"uint256"}],"outputs":[{"name":"amountOut","type":"uint256","internalType":"uint256"}],"stateMutability":"pure"}],"bytecode":{"object":"0x608060405234801561001057600080fd5b50610105806100206000396000f3fe6080604052348015600f57600080fd5b506004361060285760003560e01c8063054d50d414602d575b600080fd5b603c603836600460a4565b604e565b60405190815260200160405180910390f35b600081841115609c5760405162461bcd60e51b8152602060048201526016602482015275496e73756666696369656e74206c697175696469747960501b604482015260640160405180910390fd5b509192915050565b60008060006060848603121560b857600080fd5b50508135936020830135935060409092013591905056fea2646970667358221220d1161c13a884b505051cac8a701804333cb719b3f4a6d3f41189d87301276b2e64736f6c63430008180033","linkReferences":{}},"methodIdentifiers":{"getAmountOut(uint256,uint256,uint256)":"054d50d4"},"id":0}