{"abi":[{"type":"constructor","inputs":[],"stateMutability":"nonpayable"},{"type":"function","name":"getAmountOut","inputs":[{"name":"amountIn","type":"uint256","internalType":"uint256"},{"name":"reserveIn","type":"uint256","internalType":"uint256"},{"name":"reserveOut","type":"uint256","internalType":"uint256"}],"outputs":[{"name":"amountOut","type":"uint256","internalType":"uint256"}],"stateMutability":"pure"}],"bytecode":{"object":"0x608060405234801561001057600080fd5b50610164806100206000396000f3fe608060405234801561001057600080fd5b506004361061002b5760003560e01c8063054d50d414610030575b600080fd5b61004361003e36600461009a565b610055565b60405190815260200160405180910390f35b600080610064856103e56100dc565b905080610073856103e86100dc565b61007d91906100f9565b61008784836100dc565b610091919061010c565b95945050505050565b6000806000606084860312156100af57600080fd5b505081359360208301359350604090920135919050565b634e487b7160e01b600052601160045260246000fd5b80820281158282048414176100f3576100f36100c6565b92915050565b808201808211156100f3576100f36100c6565b60008261012957634e487b7160e01b600052601260045260246000fd5b50049056fea2646970667358221220df741fc837e72c3fd81cb92a575176498b62cf43ac26c16b66ad3825026e184664736f6c63430008180033","linkReferences":{}},"methodIdentifiers":{"getAmountOut(uint256,uint256,uint256)":"054d50d4"},"id":0}