{"abi":[{"type":"constructor","inputs":[{"name":"_A","type":"uint256","internalType":"uint256"}],"stateMutability":"nonpayable"},{"type":"function","name":"A","inputs":[],"outputs":[{"name":"","type":"uint256","internalType":"uint256"}],"stateMutability":"view"},{"type":"function","name":"getAmountOut","inputs":[{"name":"amountIn","type":"uint256","internalType":"uint256"},{"name":"reserveIn","type":"uint256","internalType":"uint256"},{"name":"reserveOut","type":"uint256","internalType":"uint256"}],"outputs":[{"name":"amountOut","type":"uint256","internalType":"uint256"}],"stateMutability":"view"}],"bytecode":{"object":"0x60a060405234801561001057600080fd5b5060405161052038038061052083398101604081905261002f91610096565b600181101561008e5760405162461bcd60e51b815260206004820152602160248201527f416d706c696669636174696f6e20666163746f72206d757374206265203e3d206044820152603160f81b606482015260840160405180910390fd5b6080526100af565b6000602082840312156100a857600080fd5b5051919050565b60805161044b6100d56000396000818160650152818160bd015260ec015261044b6000f3fe608060405234801561001057600080fd5b50600436106100365760003560e01c8063054d50d41461003b578063f446c1d014610060575b600080fd5b61004e610049366004610331565b610087565b60405190815260200160405180910390f35b61004e7f000000000000000000000000000000000000000000000000000000000000000081565b6000806103e8610099866103e7610373565b6100a3919061038a565b905060006100b182866103ac565b90508360006100e183837f0000000000000000000000000000000000000000000000000000000000000000610175565b9050600061011084837f0000000000000000000000000000000000000000000000000000000000000000610216565b90508281111561015e5760405162461bcd60e51b8152602060048201526015602482015274537461626c6543757276653a206f766572666c6f7760581b604482015260640160405180910390fd5b61016881846103bf565b9998505050505050505050565b600061018183856103ac565b905060005b60ff81101561020e57818361019c826003610373565b6101a691906103ac565b6101b086886103ac565b6101ba9086610373565b846101c6816002610373565b6101d09190610373565b6101da91906103ac565b6101e4919061038a565b925060016101fa6101f583866103d2565b610311565b11610205575061020e565b50600101610186565b509392505050565b600080610224836002610373565b90506000610233866002610373565b61023d8680610373565b610247919061038a565b9050610254826004610373565b61025e8683610373565b610268919061038a565b90506000610276838761038a565b61028090886103ac565b905085935060005b60ff811015610306578460008461029f8380610373565b6102a991906103ac565b9050600089856102ba8a6002610373565b6102c491906103ac565b6102ce91906103bf565b90506102da818361038a565b975060016102eb6101f5858b6103d2565b116102f857505050610306565b505050806001019050610288565b505050509392505050565b60008082121561032957610324826103f9565b61032b565b815b92915050565b60008060006060848603121561034657600080fd5b505081359360208301359350604090920135919050565b634e487b7160e01b600052601160045260246000fd5b808202811582820484141761032b5761032b61035d565b6000826103a757634e487b7160e01b600052601260045260246000fd5b500490565b8082018082111561032b5761032b61035d565b8181038181111561032b5761032b61035d565b81810360008312801583831316838312821617156103f2576103f261035d565b5092915050565b6000600160ff1b820161040e5761040e61035d565b506000039056fea264697066735822122004ea6a12e231c8b2ea69998509e9a2a1385acd2818eb489cb600d0a5f25008b664736f6c63430008180033","linkReferences":{}},"methodIdentifiers":{"A()":"f446c1d0","getAmountOut(uint256,uint256,uint256)":"054d50d4"},"id":21}